{
  "contractName": "Silhouettes",
  "abi": [
    {
      "inputs": [],
      "stateMutability": "nonpayable",
      "type": "constructor"
    },
    {
      "anonymous": false,
      "inputs": [
        {
          "indexed": false,
          "internalType": "uint256",
          "name": "id",
          "type": "uint256"
        },
        {
          "indexed": false,
          "internalType": "string",
          "name": "hash",
          "type": "string"
        },
        {
          "indexed": false,
          "internalType": "string",
          "name": "tags",
          "type": "string"
        },
        {
          "indexed": false,
          "internalType": "uint256",
          "name": "fee",
          "type": "uint256"
        },
        {
          "indexed": false,
          "internalType": "address payable",
          "name": "owner",
          "type": "address"
        }
      ],
      "name": "Payed",
      "type": "event"
    },
    {
      "anonymous": false,
      "inputs": [
        {
          "indexed": false,
          "internalType": "uint256",
          "name": "id",
          "type": "uint256"
        },
        {
          "indexed": false,
          "internalType": "string",
          "name": "hash",
          "type": "string"
        },
        {
          "indexed": false,
          "internalType": "string",
          "name": "tags",
          "type": "string"
        },
        {
          "indexed": false,
          "internalType": "uint256",
          "name": "fee",
          "type": "uint256"
        },
        {
          "indexed": false,
          "internalType": "address payable",
          "name": "owner",
          "type": "address"
        }
      ],
      "name": "Uploaded",
      "type": "event"
    },
    {
      "inputs": [],
      "name": "Name",
      "outputs": [
        {
          "internalType": "string",
          "name": "",
          "type": "string"
        }
      ],
      "stateMutability": "view",
      "type": "function",
      "constant": true
    },
    {
      "inputs": [],
      "name": "Symbol",
      "outputs": [
        {
          "internalType": "string",
          "name": "",
          "type": "string"
        }
      ],
      "stateMutability": "view",
      "type": "function",
      "constant": true
    },
    {
      "inputs": [
        {
          "internalType": "uint256",
          "name": "",
          "type": "uint256"
        }
      ],
      "name": "pngs",
      "outputs": [
        {
          "internalType": "uint256",
          "name": "id",
          "type": "uint256"
        },
        {
          "internalType": "string",
          "name": "hash",
          "type": "string"
        },
        {
          "internalType": "string",
          "name": "tags",
          "type": "string"
        },
        {
          "internalType": "uint256",
          "name": "fee",
          "type": "uint256"
        },
        {
          "internalType": "address payable",
          "name": "owner",
          "type": "address"
        }
      ],
      "stateMutability": "view",
      "type": "function",
      "constant": true
    },
    {
      "inputs": [
        {
          "internalType": "string",
          "name": "_hash",
          "type": "string"
        },
        {
          "internalType": "string",
          "name": "_tags",
          "type": "string"
        }
      ],
      "name": "upload",
      "outputs": [],
      "stateMutability": "nonpayable",
      "type": "function"
    }
  ],
  "bytecode": "0x6080604052336000806101000a81548173ffffffffffffffffffffffffffffffffffffffff021916908373ffffffffffffffffffffffffffffffffffffffff1602179055506040518060400160405280600b81526020017f53696c686f7565747465730000000000000000000000000000000000000000008152506001908051906020019061008f9291906100fe565b506040518060400160405280600381526020017f53494c0000000000000000000000000000000000000000000000000000000000815250600290805190602001906100db9291906100fe565b50600060035566071afd498d00006004553480156100f857600080fd5b50610202565b82805461010a906101a1565b90600052602060002090601f01602090048101928261012c5760008555610173565b82601f1061014557805160ff1916838001178555610173565b82800160010185558215610173579182015b82811115610172578251825591602001919060010190610157565b5b5090506101809190610184565b5090565b5b8082111561019d576000816000905550600101610185565b5090565b600060028204905060018216806101b957607f821691505b602082108114156101cd576101cc6101d3565b5b50919050565b7f4e487b7100000000000000000000000000000000000000000000000000000000600052602260045260246000fd5b610a8480620002126000396000f3fe608060405234801561001057600080fd5b506004361061004c5760003560e01c8063202e4936146100515780633045aaf31461006d5780638052474d1461008b578063cf967207146100a9575b600080fd5b61006b6004803603810190610066919061066a565b6100dd565b005b6100756102c0565b6040516100829190610766565b60405180910390f35b61009361034e565b6040516100a09190610766565b60405180910390f35b6100c360048036038101906100be91906106e2565b6103dc565b6040516100d4959493929190610788565b60405180910390f35b600073ffffffffffffffffffffffffffffffffffffffff163373ffffffffffffffffffffffffffffffffffffffff16141561011757600080fd5b600082511161012557600080fd5b600081511161013357600080fd5b600360008154809291906101469061093c565b91905055506040518060a001604052806003548152602001838152602001828152602001600454815260200160008054906101000a900473ffffffffffffffffffffffffffffffffffffffff1673ffffffffffffffffffffffffffffffffffffffff168152506005600060035481526020019081526020016000206000820151816000015560208201518160010190805190602001906101e7929190610542565b506040820151816002019080519060200190610204929190610542565b506060820151816003015560808201518160040160006101000a81548173ffffffffffffffffffffffffffffffffffffffff021916908373ffffffffffffffffffffffffffffffffffffffff1602179055509050507f0b55ad3ced19a8d5c192d88bbb678484b0c535fab682aa4f7555b6d6c483c253600354838360045460008054906101000a900473ffffffffffffffffffffffffffffffffffffffff166040516102b4959493929190610788565b60405180910390a15050565b600280546102cd906108d9565b80601f01602080910402602001604051908101604052809291908181526020018280546102f9906108d9565b80156103465780601f1061031b57610100808354040283529160200191610346565b820191906000526020600020905b81548152906001019060200180831161032957829003601f168201915b505050505081565b6001805461035b906108d9565b80601f0160208091040260200160405190810160405280929190818152602001828054610387906108d9565b80156103d45780601f106103a9576101008083540402835291602001916103d4565b820191906000526020600020905b8154815290600101906020018083116103b757829003601f168201915b505050505081565b6005602052806000526040600020600091509050806000015490806001018054610405906108d9565b80601f0160208091040260200160405190810160405280929190818152602001828054610431906108d9565b801561047e5780601f106104535761010080835404028352916020019161047e565b820191906000526020600020905b81548152906001019060200180831161046157829003601f168201915b505050505090806002018054610493906108d9565b80601f01602080910402602001604051908101604052809291908181526020018280546104bf906108d9565b801561050c5780601f106104e15761010080835404028352916020019161050c565b820191906000526020600020905b8154815290600101906020018083116104ef57829003601f168201915b5050505050908060030154908060040160009054906101000a900473ffffffffffffffffffffffffffffffffffffffff16905085565b82805461054e906108d9565b90600052602060002090601f01602090048101928261057057600085556105b7565b82601f1061058957805160ff19168380011785556105b7565b828001600101855582156105b7579182015b828111156105b657825182559160200191906001019061059b565b5b5090506105c491906105c8565b5090565b5b808211156105e15760008160009055506001016105c9565b5090565b60006105f86105f38461080e565b6107e9565b90508281526020810184848401111561061457610613610a17565b5b61061f848285610897565b509392505050565b600082601f83011261063c5761063b610a12565b5b813561064c8482602086016105e5565b91505092915050565b60008135905061066481610a37565b92915050565b6000806040838503121561068157610680610a21565b5b600083013567ffffffffffffffff81111561069f5761069e610a1c565b5b6106ab85828601610627565b925050602083013567ffffffffffffffff8111156106cc576106cb610a1c565b5b6106d885828601610627565b9150509250929050565b6000602082840312156106f8576106f7610a21565b5b600061070684828501610655565b91505092915050565b6107188161085b565b82525050565b60006107298261083f565b610733818561084a565b93506107438185602086016108a6565b61074c81610a26565b840191505092915050565b6107608161088d565b82525050565b60006020820190508181036000830152610780818461071e565b905092915050565b600060a08201905061079d6000830188610757565b81810360208301526107af818761071e565b905081810360408301526107c3818661071e565b90506107d26060830185610757565b6107df608083018461070f565b9695505050505050565b60006107f3610804565b90506107ff828261090b565b919050565b6000604051905090565b600067ffffffffffffffff821115610829576108286109e3565b5b61083282610a26565b9050602081019050919050565b600081519050919050565b600082825260208201905092915050565b60006108668261086d565b9050919050565b600073ffffffffffffffffffffffffffffffffffffffff82169050919050565b6000819050919050565b82818337600083830152505050565b60005b838110156108c45780820151818401526020810190506108a9565b838111156108d3576000848401525b50505050565b600060028204905060018216806108f157607f821691505b60208210811415610905576109046109b4565b5b50919050565b61091482610a26565b810181811067ffffffffffffffff82111715610933576109326109e3565b5b80604052505050565b60006109478261088d565b91507fffffffffffffffffffffffffffffffffffffffffffffffffffffffffffffffff82141561097a57610979610985565b5b600182019050919050565b7f4e487b7100000000000000000000000000000000000000000000000000000000600052601160045260246000fd5b7f4e487b7100000000000000000000000000000000000000000000000000000000600052602260045260246000fd5b7f4e487b7100000000000000000000000000000000000000000000000000000000600052604160045260246000fd5b600080fd5b600080fd5b600080fd5b600080fd5b6000601f19601f8301169050919050565b610a408161088d565b8114610a4b57600080fd5b5056fea264697066735822122083c1c0c08f55405b9f3cfd2c15027a867911f8e315d4e2951d813fd8f5afb13f64736f6c63430008070033",
  "immutableReferences": {},
  "source": "// SPDX-License-Identifier: MIT\npragma solidity ^0.8.0;\ncontract Silhouettes {\n\taddress payable Owner = payable(msg.sender);\n\tstring public Name = 'Silhouettes';\n\tstring public Symbol = 'SIL';\n\tuint256 Increment = 0;\n\tuint Fee = 0.002 ether;\n\n\tmapping(uint256 => PNG) public pngs;\n\tstruct PNG{uint256 id; string hash; string tags; uint256 fee; address payable owner;}\n\tevent Uploaded(uint256 id, string hash, string tags, uint256 fee, address payable owner);\n\tevent Payed(uint256 id, string hash, string tags, uint256 fee, address payable owner);\n\n\tconstructor() {}\n\tfunction upload(string memory _hash, string memory _tags) public {\n\t\trequire(msg.sender != address(0));\n\t\trequire(bytes(_hash).length > 0);\n\t\trequire(bytes(_tags).length > 0);\n\t\tIncrement++;\n\t\tpngs[Increment] = PNG(Increment, _hash, _tags, Fee, Owner);\n\t\temit Uploaded(Increment, _hash, _tags, Fee, Owner);\n\t}\n}",
  "sourcePath": "/Users/damiana/Documents/Coding Projects/_MBrody22/Silhouettes/src/contracts/Silhouettes.sol",
  "compiler": {
    "name": "solc",
    "version": "0.8.7+commit.e28d00a7.Emscripten.clang"
  },
  "schemaVersion": "3.4.1",
  "updatedAt": "2021-08-20T11:56:23.114Z",
  "networkType": "ethereum",
  "devdoc": {
    "kind": "dev",
    "methods": {},
    "version": 1
  },
  "userdoc": {
    "kind": "user",
    "methods": {},
    "version": 1
  }
}